:100000000C942A000C9434000C9434000C943400AA
:100010000C9434000C9434000C9434000C94340090
:100020000C9434000C9434000C9434000C94340080
:100030000C9434000C9434000C9434000C94340070
:100040000C9434000C9434000C9434000C94340060
:100050000C94340011241FBECFE5D4E0DEBFCDBF29
:100060000E943A000C9452000C9400008FEF8ABB5F
:100070001BBA08958FEF8ABB1BBA20E931E0D89AEA
:1000800080EA9FE0F9013197F1F70197D9F78BB337
:1000900081708BBB80EA9FE0F9013197F1F70197FE
:0800A000D9F7EDCFF894FFCF72
:00000001FF
