:100000000C942A000C9434000C9434000C943400AA
:100010000C9434000C9434000C9434000C94340090
:100020000C9434000C9434000C9434000C94340080
:100030000C9434000C9434000C9434000C94340070
:100040000C9434000C9434000C9434000C94340060
:100050000C94340011241FBECFE5D4E0DEBFCDBF29
:100060000E9436000C9488000C9400008FEF8ABB2D
:1000700040E020E931E04F5F8BB3806F8BBB8FEFA7
:100080009FEFF9013197F1F70197D9F78BB3807F93
:100090008BBB8FEF9FEFF9013197F1F70197D9F7FC
:1000A0008BB380738BBB80E395E7F9013197F1F750
:1000B0000197D9F78BB3807C8BBB80E69AEEF90170
:1000C0003197F1F70197D9F78BB380758BBB80E43B
:1000D0009CE9F9013197F1F70197D9F78BB3807A51
:1000E0008BBB80E49CE9F9013197F1F70197D9F7CF
:1000F0008BB380758BBB80E49CE9F9013197F1F7F4
:100100000197D9F7453009F0B6CF80E090E0089527
:04011000F894FFCF91
:00000001FF
