:100000000C942A000C943F000C943F000C943F0089
:100010000C943F000C943F000C943F000C943F0064
:100020000C943F000C943F000C943F000C943F0054
:100030000C943F000C943F000C943F000C943F0044
:100040000C943F000C943F000C943F000C943F0034
:100050000C943F0011241FBECFE5D4E0DEBFCDBF1E
:1000600010E0A0E6B0E0E4E1F1E002C005900D92FE
:10007000A836B107D9F70E945A000C9488000C9456
:1000800000008FEF8ABB8FE78BBB80E29EE420E904
:1000900031E0F9013197F1F70197D9F78FEF8BBB79
:1000A00080E29EE420E931E0F9013197F1F7019710
:1000B000D9F70895DF93CF93CDB7DEB727970FB663
:1000C000F894DEBF0FBECDBF0E944100DE01119645
:1000D000E0E6F0E087E001900D928150E1F720E04A
:1000E000BE016F5F7F4F40E951E0922FFB01E90FA6
:1000F000F11D80818BBB292F2F5F8CE796E0FA01E1
:100100003197F1F70197D9F790E0283070F3EECFEF
:04011000F894FFCF91
:08011400010204081020400064
:00000001FF
