:100000000C942A000C9434000C9434000C943400AA
:100010000C9434000C9434000C9434000C94340090
:100020000C9434000C9434000C9434000C94340080
:100030000C9434000C9434000C9434000C94340070
:100040000C9434000C9434000C9434000C94340060
:100050000C94340011241FBECFE5D4E0DEBFCDBF29
:100060000E943C000C94A0000C9400008FEF81BB18
:1000700082BB14BAA89A08958FEF81BB82BB14BAD1
:10008000A89A40E060E021E030E050E0A0E9B1E073
:1000900001C030E0989B02C061E008C0662331F0E7
:1000A0004F5F443008F040E060E030E088EB9BE0D8
:1000B000FD013197F1F70197D9F7413071F04130E7
:1000C00028F0423099F0433029F724C0332309F453
:1000D00021E0822F809582BB04C0332309F421E004
:1000E00022BB220F3F5F3830A0F6D4CF332309F470
:1000F0002FEF552311F022BB03C0822F809582BBC6
:10010000220F3F5F222311F450952FEF303108F07A
:10011000C0CFC0CF332311F421E05FEF822F809551
:1001200082BB552311F0220F01C026953F5F373067
:1001300019F420E850E0AECF3E3008F0AACFAACFA5
:04014000F894FFCF61
:00000001FF
