:100000000C942A000C9434000C9434000C943400AA
:100010000C9434000C9434000C9434000C94340090
:100020000C9434000C9434000C9434000C94340080
:100030000C9434000C9434000C9434000C94340070
:100040000C9434000C9434000C9434000C94340060
:100050000C94340011241FBECFE5D4E0DEBFCDBF29
:100060000E9446000C9496000C9400008FEF8ABB0F
:100070009BB38BBB80E29EE420E931E0F90131972C
:10008000F1F70197D9F78BB31BBA08950E94360098
:1000900020E040E951E03FEF0BC08BB3822B8BBBDC
:1000A00080E197E2FA013197F1F70197D9F72F5FD5
:1000B000203198F38BB31BBA80E395E7FA013197AF
:1000C000F1F70197D9F720E0D99A80E197E2FA0198
:1000D0003197F1F70197D9F72F5F2830A9F78BB344
:1000E0001BBA80E29EE4FA013197F1F70197D9F744
:1000F0008BB33BBB80E29EE4FA013197F1F70197A5
:10010000D9F78BB38E748BBB80E49CE9FA013197ED
:10011000F1F70197D9F78BB31BBA80E593ECFA019D
:100120003197F1F70197D9F720E0B7CFF894FFCFD7
:00000001FF
